{
  "contractName": "ClasseContract",
  "abi": [
    {
      "anonymous": false,
      "inputs": [
        {
          "indexed": false,
          "internalType": "string",
          "name": "_nom",
          "type": "string"
        },
        {
          "indexed": false,
          "internalType": "uint256",
          "name": "_note",
          "type": "uint256"
        }
      ],
      "name": "Add_Etudiant",
      "type": "event"
    },
    {
      "anonymous": false,
      "inputs": [
        {
          "indexed": false,
          "internalType": "string",
          "name": "_nom",
          "type": "string"
        }
      ],
      "name": "Delete_Etudiant",
      "type": "event"
    },
    {
      "inputs": [],
      "name": "classe",
      "outputs": [
        {
          "internalType": "enum ClasseContract.Classe",
          "name": "",
          "type": "uint8"
        }
      ],
      "stateMutability": "view",
      "type": "function",
      "constant": true
    },
    {
      "inputs": [
        {
          "internalType": "uint256",
          "name": "",
          "type": "uint256"
        }
      ],
      "name": "etudiants",
      "outputs": [
        {
          "internalType": "string",
          "name": "nom",
          "type": "string"
        },
        {
          "internalType": "uint256",
          "name": "note",
          "type": "uint256"
        }
      ],
      "stateMutability": "view",
      "type": "function",
      "constant": true
    },
    {
      "inputs": [
        {
          "internalType": "address",
          "name": "",
          "type": "address"
        }
      ],
      "name": "etudiantsMapping",
      "outputs": [
        {
          "internalType": "string",
          "name": "nom",
          "type": "string"
        },
        {
          "internalType": "uint256",
          "name": "note",
          "type": "uint256"
        }
      ],
      "stateMutability": "view",
      "type": "function",
      "constant": true
    },
    {
      "inputs": [
        {
          "internalType": "address",
          "name": "_address",
          "type": "address"
        },
        {
          "internalType": "string",
          "name": "_nom",
          "type": "string"
        },
        {
          "internalType": "uint256",
          "name": "_note",
          "type": "uint256"
        }
      ],
      "name": "addEtudiantInMapping",
      "outputs": [],
      "stateMutability": "nonpayable",
      "type": "function"
    },
    {
      "inputs": [
        {
          "internalType": "address",
          "name": "_address",
          "type": "address"
        }
      ],
      "name": "getEtudiant",
      "outputs": [
        {
          "components": [
            {
              "internalType": "string",
              "name": "nom",
              "type": "string"
            },
            {
              "internalType": "uint256",
              "name": "note",
              "type": "uint256"
            }
          ],
          "internalType": "struct ClasseContract.Etudiant",
          "name": "",
          "type": "tuple"
        }
      ],
      "stateMutability": "view",
      "type": "function",
      "constant": true
    },
    {
      "inputs": [
        {
          "internalType": "address",
          "name": "_address",
          "type": "address"
        }
      ],
      "name": "deleteEtudiant",
      "outputs": [],
      "stateMutability": "nonpayable",
      "type": "function"
    },
    {
      "inputs": [
        {
          "internalType": "enum ClasseContract.Classe",
          "name": "_classe",
          "type": "uint8"
        }
      ],
      "name": "setClasse",
      "outputs": [],
      "stateMutability": "nonpayable",
      "type": "function"
    }
  ],
  "bytecode": "0x608060405234801561001057600080fd5b50611090806100206000396000f3fe608060405234801561001057600080fd5b506004361061007d5760003560e01c806374e61a781161005b57806374e61a7814610100578063d9b1c1461461011c578063dfdf85c31461013a578063e7b613031461016a5761007d565b8063235a30fa146100825780633ce3390d146100b35780634e0f8fd7146100e4575b600080fd5b61009c6004803603810190610097919061073f565b610186565b6040516100aa92919061080b565b60405180910390f35b6100cd60048036038101906100c89190610899565b610242565b6040516100db92919061080b565b60405180910390f35b6100fe60048036038101906100f99190610899565b6102ee565b005b61011a600480360381019061011591906108eb565b6103c3565b005b6101246103ef565b604051610131919061098f565b60405180910390f35b610154600480360381019061014f9190610899565b610400565b6040516101619190610a40565b60405180910390f35b610184600480360381019061017f9190610ac7565b6104f5565b005b6001818154811061019657600080fd5b90600052602060002090600202016000915090508060000180546101b990610b6a565b80601f01602080910402602001604051908101604052809291908181526020018280546101e590610b6a565b80156102325780601f1061020757610100808354040283529160200191610232565b820191906000526020600020905b81548152906001019060200180831161021557829003601f168201915b5050505050908060010154905082565b600260205280600052604060002060009150905080600001805461026590610b6a565b80601f016020809104026020016040519081016040528092919081815260200182805461029190610b6a565b80156102de5780601f106102b3576101008083540402835291602001916102de565b820191906000526020600020905b8154815290600101906020018083116102c157829003601f168201915b5050505050908060010154905082565b7f9f30c06511a6fc49072597379f70ad91e8d084fa260dfe641034bcd24a09c0ba600260008373ffffffffffffffffffffffffffffffffffffffff1673ffffffffffffffffffffffffffffffffffffffff16815260200190815260200160002060000160405161035e9190610c34565b60405180910390a1600260008273ffffffffffffffffffffffffffffffffffffffff1673ffffffffffffffffffffffffffffffffffffffff168152602001908152602001600020600080820160006103b69190610688565b6001820160009055505050565b806000806101000a81548160ff021916908360038111156103e7576103e6610918565b5b021790555050565b60008054906101000a900460ff1681565b6104086106c8565b600260008373ffffffffffffffffffffffffffffffffffffffff1673ffffffffffffffffffffffffffffffffffffffff16815260200190815260200160002060405180604001604052908160008201805461046290610b6a565b80601f016020809104026020016040519081016040528092919081815260200182805461048e90610b6a565b80156104db5780601f106104b0576101008083540402835291602001916104db565b820191906000526020600020905b8154815290600101906020018083116104be57829003601f168201915b505050505081526020016001820154815250509050919050565b604051806040016040528084848080601f016020809104026020016040519081016040528093929190818152602001838380828437600081840152601f19601f82011690508083019250505050505050815260200182815250600260008673ffffffffffffffffffffffffffffffffffffffff1673ffffffffffffffffffffffffffffffffffffffff16815260200190815260200160002060008201518160000190816105a29190610e1c565b50602082015181600101559050506105f7600260008673ffffffffffffffffffffffffffffffffffffffff1673ffffffffffffffffffffffffffffffffffffffff168152602001908152602001600020610638565b7f209e29301e5a40c22e6f7fc2262ea6f3166f6ad0ccc02dea47a84a9ada6c936a83838360405161062a93929190610f2a565b60405180910390a150505050565b6001819080600181540180825580915050600190039060005260206000209060020201600090919091909150600082018160000190816106789190610f72565b5060018201548160010155505050565b50805461069490610b6a565b6000825580601f106106a657506106c5565b601f0160209004906000526020600020908101906106c491906106e2565b5b50565b604051806040016040528060608152602001600081525090565b5b808211156106fb5760008160009055506001016106e3565b5090565b600080fd5b600080fd5b6000819050919050565b61071c81610709565b811461072757600080fd5b50565b60008135905061073981610713565b92915050565b600060208284031215610755576107546106ff565b5b60006107638482850161072a565b91505092915050565b600081519050919050565b600082825260208201905092915050565b60005b838110156107a657808201518184015260208101905061078b565b60008484015250505050565b6000601f19601f8301169050919050565b60006107ce8261076c565b6107d88185610777565b93506107e8818560208601610788565b6107f1816107b2565b840191505092915050565b61080581610709565b82525050565b6000604082019050818103600083015261082581856107c3565b905061083460208301846107fc565b9392505050565b600073ffffffffffffffffffffffffffffffffffffffff82169050919050565b60006108668261083b565b9050919050565b6108768161085b565b811461088157600080fd5b50565b6000813590506108938161086d565b92915050565b6000602082840312156108af576108ae6106ff565b5b60006108bd84828501610884565b91505092915050565b600481106108d357600080fd5b50565b6000813590506108e5816108c6565b92915050565b600060208284031215610901576109006106ff565b5b600061090f848285016108d6565b91505092915050565b7f4e487b7100000000000000000000000000000000000000000000000000000000600052602160045260246000fd5b6004811061095857610957610918565b5b50565b600081905061096982610947565b919050565b60006109798261095b565b9050919050565b6109898161096e565b82525050565b60006020820190506109a46000830184610980565b92915050565b600082825260208201905092915050565b60006109c68261076c565b6109d081856109aa565b93506109e0818560208601610788565b6109e9816107b2565b840191505092915050565b6109fd81610709565b82525050565b60006040830160008301518482036000860152610a2082826109bb565b9150506020830151610a3560208601826109f4565b508091505092915050565b60006020820190508181036000830152610a5a8184610a03565b905092915050565b600080fd5b600080fd5b600080fd5b60008083601f840112610a8757610a86610a62565b5b8235905067ffffffffffffffff811115610aa457610aa3610a67565b5b602083019150836001820283011115610ac057610abf610a6c565b5b9250929050565b60008060008060608587031215610ae157610ae06106ff565b5b6000610aef87828801610884565b945050602085013567ffffffffffffffff811115610b1057610b0f610704565b5b610b1c87828801610a71565b93509350506040610b2f8782880161072a565b91505092959194509250565b7f4e487b7100000000000000000000000000000000000000000000000000000000600052602260045260246000fd5b60006002820490506001821680610b8257607f821691505b602082108103610b9557610b94610b3b565b5b50919050565b60008190508160005260206000209050919050565b60008154610bbd81610b6a565b610bc78186610777565b94506001821660008114610be25760018114610bf857610c2b565b60ff198316865281151560200286019350610c2b565b610c0185610b9b565b60005b83811015610c2357815481890152600182019150602081019050610c04565b808801955050505b50505092915050565b60006020820190508181036000830152610c4e8184610bb0565b905092915050565b7f4e487b7100000000000000000000000000000000000000000000000000000000600052604160045260246000fd5b60006020601f8301049050919050565b600082821b905092915050565b600060088302610cd27fffffffffffffffffffffffffffffffffffffffffffffffffffffffffffffffff82610c95565b610cdc8683610c95565b95508019841693508086168417925050509392505050565b6000819050919050565b6000610d19610d14610d0f84610709565b610cf4565b610709565b9050919050565b6000819050919050565b610d3383610cfe565b610d47610d3f82610d20565b848454610ca2565b825550505050565b600090565b610d5c610d4f565b610d67818484610d2a565b505050565b5b81811015610d8b57610d80600082610d54565b600181019050610d6d565b5050565b601f821115610dd057610da181610b9b565b610daa84610c85565b81016020851015610db9578190505b610dcd610dc585610c85565b830182610d6c565b50505b505050565b600082821c905092915050565b6000610df360001984600802610dd5565b1980831691505092915050565b6000610e0c8383610de2565b9150826002028217905092915050565b610e258261076c565b67ffffffffffffffff811115610e3e57610e3d610c56565b5b610e488254610b6a565b610e53828285610d8f565b600060209050601f831160018114610e865760008415610e74578287015190505b610e7e8582610e00565b865550610ee6565b601f198416610e9486610b9b565b60005b82811015610ebc57848901518255600182019150602085019450602081019050610e97565b86831015610ed95784890151610ed5601f891682610de2565b8355505b6001600288020188555050505b505050505050565b82818337600083830152505050565b6000610f098385610777565b9350610f16838584610eee565b610f1f836107b2565b840190509392505050565b60006040820190508181036000830152610f45818587610efd565b9050610f5460208301846107fc565b949350505050565b600081549050610f6b81610b6a565b9050919050565b818103610f80575050611058565b610f8982610f5c565b67ffffffffffffffff811115610fa257610fa1610c56565b5b610fac8254610b6a565b610fb7828285610d8f565b6000601f831160018114610fe65760008415610fd4578287015490505b610fde8582610e00565b865550611051565b601f198416610ff487610b9b565b9650610fff86610b9b565b60005b8281101561102757848901548255600182019150600185019450602081019050611002565b868310156110445784890154611040601f891682610de2565b8355505b6001600288020188555050505b5050505050505b56fea264697066735822122092b916a3753774da6f2fba0728e7ab36e49b3d8f60541a85d4e3b010ce23651164736f6c63430008110033",
  "immutableReferences": {},
  "source": "// SPDX-License-Identifier: GPL-3.0\n\npragma solidity 0.8.17;\n\n/**\n * @title ClasseContract\n */\ncontract ClasseContract {\n    struct Etudiant {\n        string nom;\n        uint256 note;\n    }\n\n    enum Classe {\n        Sixieme,\n        Cinquieme,\n        Quatrieme,\n        Troisieme\n    }\n\n    Classe public classe;\n\n    Etudiant[] public etudiants;\n\n    mapping(address => Etudiant) public etudiantsMapping;\n\n    event Add_Etudiant(string _nom, uint256 _note);\n    event Delete_Etudiant(string _nom);\n\n    function _addEtudiant(Etudiant storage _etudiant) private {\n        etudiants.push(_etudiant);\n    }\n\n    function addEtudiantInMapping(\n        address _address,\n        string calldata _nom,\n        uint256 _note\n    ) public {\n        // Etudiant calldata etudiant = Etudiant(_nom, _note);\n        etudiantsMapping[_address] = Etudiant(_nom, _note);\n        _addEtudiant(etudiantsMapping[_address]);\n\n        emit Add_Etudiant(_nom, _note);\n    }\n\n    function getEtudiant(address _address) public view returns (Etudiant memory) {\n        return etudiantsMapping[_address];\n    }\n\n    function deleteEtudiant(address _address) public {\n        emit Delete_Etudiant(etudiantsMapping[_address].nom);\n\n        delete etudiantsMapping[_address];\n    }\n\n    function setClasse(Classe _classe) public {\n        classe = _classe;\n    }\n}\n",
  "sourcePath": "/Users/pom/workspace/DevEthereum/classe/contracts/ClasseContract.sol",
  "compiler": {
    "name": "solc",
    "version": "0.8.17+commit.8df45f5f.Emscripten.clang"
  },
  "schemaVersion": "3.4.11",
  "updatedAt": "2023-02-22T19:23:45.602Z",
  "networkType": "ethereum",
  "devdoc": {
    "kind": "dev",
    "methods": {},
    "title": "ClasseContract",
    "version": 1
  },
  "userdoc": {
    "kind": "user",
    "methods": {},
    "version": 1
  }
}