{
  "contractName": "Spa",
  "abi": [
    {
      "anonymous": false,
      "inputs": [
        {
          "indexed": false,
          "internalType": "uint256",
          "name": "id",
          "type": "uint256"
        }
      ],
      "name": "animalAdded",
      "type": "event"
    },
    {
      "anonymous": false,
      "inputs": [
        {
          "indexed": false,
          "internalType": "uint256",
          "name": "_id",
          "type": "uint256"
        },
        {
          "indexed": false,
          "internalType": "address",
          "name": "_addr",
          "type": "address"
        }
      ],
      "name": "animalAdopted",
      "type": "event"
    },
    {
      "inputs": [
        {
          "internalType": "address",
          "name": "",
          "type": "address"
        }
      ],
      "name": "Adoption",
      "outputs": [
        {
          "internalType": "uint256",
          "name": "",
          "type": "uint256"
        }
      ],
      "stateMutability": "view",
      "type": "function",
      "constant": true
    },
    {
      "inputs": [
        {
          "internalType": "string",
          "name": "_race",
          "type": "string"
        },
        {
          "internalType": "uint256",
          "name": "_taille",
          "type": "uint256"
        },
        {
          "internalType": "uint256",
          "name": "_age",
          "type": "uint256"
        }
      ],
      "name": "Add",
      "outputs": [],
      "stateMutability": "nonpayable",
      "type": "function"
    },
    {
      "inputs": [
        {
          "internalType": "uint256",
          "name": "_id",
          "type": "uint256"
        }
      ],
      "name": "Get",
      "outputs": [
        {
          "components": [
            {
              "internalType": "string",
              "name": "race",
              "type": "string"
            },
            {
              "internalType": "uint256",
              "name": "taille",
              "type": "uint256"
            },
            {
              "internalType": "uint256",
              "name": "age",
              "type": "uint256"
            },
            {
              "internalType": "bool",
              "name": "isAdopted",
              "type": "bool"
            }
          ],
          "internalType": "struct Spa.Animal",
          "name": "Rex",
          "type": "tuple"
        }
      ],
      "stateMutability": "view",
      "type": "function",
      "constant": true
    },
    {
      "inputs": [
        {
          "internalType": "uint256",
          "name": "_id",
          "type": "uint256"
        },
        {
          "internalType": "string",
          "name": "_race",
          "type": "string"
        },
        {
          "internalType": "uint256",
          "name": "_taille",
          "type": "uint256"
        },
        {
          "internalType": "uint256",
          "name": "_age",
          "type": "uint256"
        }
      ],
      "name": "Set",
      "outputs": [],
      "stateMutability": "nonpayable",
      "type": "function"
    },
    {
      "inputs": [
        {
          "internalType": "uint256",
          "name": "_id",
          "type": "uint256"
        }
      ],
      "name": "Delete",
      "outputs": [],
      "stateMutability": "nonpayable",
      "type": "function"
    },
    {
      "inputs": [
        {
          "internalType": "uint256",
          "name": "_id",
          "type": "uint256"
        }
      ],
      "name": "AdoptOne",
      "outputs": [],
      "stateMutability": "nonpayable",
      "type": "function"
    },
    {
      "inputs": [
        {
          "internalType": "address",
          "name": "_addr",
          "type": "address"
        }
      ],
      "name": "GetAdoption",
      "outputs": [
        {
          "components": [
            {
              "internalType": "string",
              "name": "race",
              "type": "string"
            },
            {
              "internalType": "uint256",
              "name": "taille",
              "type": "uint256"
            },
            {
              "internalType": "uint256",
              "name": "age",
              "type": "uint256"
            },
            {
              "internalType": "bool",
              "name": "isAdopted",
              "type": "bool"
            }
          ],
          "internalType": "struct Spa.Animal",
          "name": "Rex",
          "type": "tuple"
        }
      ],
      "stateMutability": "view",
      "type": "function",
      "constant": true
    },
    {
      "inputs": [
        {
          "internalType": "string",
          "name": "_race",
          "type": "string"
        },
        {
          "internalType": "uint256",
          "name": "_tailleMax",
          "type": "uint256"
        },
        {
          "internalType": "uint256",
          "name": "_ageMax",
          "type": "uint256"
        }
      ],
      "name": "AdoptIfMax",
      "outputs": [
        {
          "internalType": "bool",
          "name": "",
          "type": "bool"
        }
      ],
      "stateMutability": "nonpayable",
      "type": "function"
    }
  ],
  "bytecode": "0x608060405234801561001057600080fd5b5061147a806100206000396000f3fe608060405234801561001057600080fd5b50600436106100885760003560e01c8063a7bde93a1161005b578063a7bde93a14610139578063cc4aea1114610155578063ec27a5ba14610171578063f8aa7cd5146101a157610088565b80635713dc101461008d57806360cd2685146100bd5780637d815d57146100ed578063a4f7242c14610109575b600080fd5b6100a760048036038101906100a29190610a57565b6101bd565b6040516100b49190610a9d565b60405180910390f35b6100d760048036038101906100d29190610ae4565b6101d5565b6040516100e49190610c2e565b60405180910390f35b61010760048036038101906101029190610ae4565b6102d2565b005b610123600480360381019061011e9190610a57565b61032e565b6040516101309190610c2e565b60405180910390f35b610153600480360381019061014e9190610ae4565b61046a565b005b61016f600480360381019061016a9190610cb5565b6105a1565b005b61018b60048036038101906101869190610d3d565b610631565b6040516101989190610dc0565b60405180910390f35b6101bb60048036038101906101b69190610d3d565b61083b565b005b60016020528060005260406000206000915090505481565b6101dd610968565b600082815481106101f1576101f0610ddb565b5b906000526020600020906004020160405180608001604052908160008201805461021a90610e39565b80601f016020809104026020016040519081016040528092919081815260200182805461024690610e39565b80156102935780601f1061026857610100808354040283529160200191610293565b820191906000526020600020905b81548152906001019060200180831161027657829003601f168201915b5050505050815260200160018201548152602001600282015481526020016003820160009054906101000a900460ff1615151515815250509050919050565b600081815481106102e6576102e5610ddb565b5b9060005260206000209060040201600080820160006103059190610992565b600182016000905560028201600090556003820160006101000a81549060ff0219169055505050565b610336610968565b6000600160008473ffffffffffffffffffffffffffffffffffffffff1673ffffffffffffffffffffffffffffffffffffffff168152602001908152602001600020548154811061038957610388610ddb565b5b90600052602060002090600402016040518060800160405290816000820180546103b290610e39565b80601f01602080910402602001604051908101604052809291908181526020018280546103de90610e39565b801561042b5780601f106104005761010080835404028352916020019161042b565b820191906000526020600020905b81548152906001019060200180831161040e57829003601f168201915b5050505050815260200160018201548152602001600282015481526020016003820160009054906101000a900460ff1615151515815250509050919050565b600015156000828154811061048257610481610ddb565b5b906000526020600020906004020160030160009054906101000a900460ff161515146104e3576040517f08c379a00000000000000000000000000000000000000000000000000000000081526004016104da90610ec7565b60405180910390fd5b6001600082815481106104f9576104f8610ddb565b5b906000526020600020906004020160030160006101000a81548160ff02191690831515021790555080600160003373ffffffffffffffffffffffffffffffffffffffff1673ffffffffffffffffffffffffffffffffffffffff168152602001908152602001600020819055507f9aef6c2097182771c472eb06441beff7252a3e6108e431904f9b3dc6865401fc8133604051610596929190610ef6565b60405180910390a150565b8383600087815481106105b7576105b6610ddb565b5b906000526020600020906004020160000191826105d5929190611105565b5081600086815481106105eb576105ea610ddb565b5b906000526020600020906004020160010181905550806000868154811061061557610614610ddb565b5b9060005260206000209060040201600201819055505050505050565b6000805b60008054905081101561082d576000818154811061065657610655610ddb565b5b90600052602060002090600402016000016040516020016106779190611263565b6040516020818303038152906040528051906020012086866040516020016106a09291906112ae565b604051602081830303815290604052805190602001200361081a5783600082815481106106d0576106cf610ddb565b5b906000526020600020906004020160010154116108195782600082815481106106fc576106fb610ddb565b5b906000526020600020906004020160020154101561081857600015156000828154811061072c5761072b610ddb565b5b906000526020600020906004020160030160009054906101000a900460ff161515036108175760016000828154811061076857610767610ddb565b5b906000526020600020906004020160030160006101000a81548160ff02191690831515021790555080600160003373ffffffffffffffffffffffffffffffffffffffff1673ffffffffffffffffffffffffffffffffffffffff168152602001908152602001600020819055507f9aef6c2097182771c472eb06441beff7252a3e6108e431904f9b3dc6865401fc8133604051610805929190610ef6565b60405180910390a16001915050610833565b5b5b5b8080610825906112f6565b915050610635565b50600090505b949350505050565b6000604051806080016040528086868080601f016020809104026020016040519081016040528093929190818152602001838380828437600081840152601f19601f82011690508083019250505050505050815260200184815260200183815260200160001515815250908060018154018082558091505060019003906000526020600020906004020160009091909190915060008201518160000190816108e3919061133e565b50602082015181600101556040820151816002015560608201518160030160006101000a81548160ff02191690831515021790555050507f46c2ccb7f70d71ee9ba22d41e83dd33314901aec4f17d4558c74302a4e19e8b9600160008054905061094d9190611410565b60405161095a9190610a9d565b60405180910390a150505050565b60405180608001604052806060815260200160008152602001600081526020016000151581525090565b50805461099e90610e39565b6000825580601f106109b057506109cf565b601f0160209004906000526020600020908101906109ce91906109d2565b5b50565b5b808211156109eb5760008160009055506001016109d3565b5090565b600080fd5b600080fd5b600073ffffffffffffffffffffffffffffffffffffffff82169050919050565b6000610a24826109f9565b9050919050565b610a3481610a19565b8114610a3f57600080fd5b50565b600081359050610a5181610a2b565b92915050565b600060208284031215610a6d57610a6c6109ef565b5b6000610a7b84828501610a42565b91505092915050565b6000819050919050565b610a9781610a84565b82525050565b6000602082019050610ab26000830184610a8e565b92915050565b610ac181610a84565b8114610acc57600080fd5b50565b600081359050610ade81610ab8565b92915050565b600060208284031215610afa57610af96109ef565b5b6000610b0884828501610acf565b91505092915050565b600081519050919050565b600082825260208201905092915050565b60005b83811015610b4b578082015181840152602081019050610b30565b60008484015250505050565b6000601f19601f8301169050919050565b6000610b7382610b11565b610b7d8185610b1c565b9350610b8d818560208601610b2d565b610b9681610b57565b840191505092915050565b610baa81610a84565b82525050565b60008115159050919050565b610bc581610bb0565b82525050565b60006080830160008301518482036000860152610be88282610b68565b9150506020830151610bfd6020860182610ba1565b506040830151610c106040860182610ba1565b506060830151610c236060860182610bbc565b508091505092915050565b60006020820190508181036000830152610c488184610bcb565b905092915050565b600080fd5b600080fd5b600080fd5b60008083601f840112610c7557610c74610c50565b5b8235905067ffffffffffffffff811115610c9257610c91610c55565b5b602083019150836001820283011115610cae57610cad610c5a565b5b9250929050565b600080600080600060808688031215610cd157610cd06109ef565b5b6000610cdf88828901610acf565b955050602086013567ffffffffffffffff811115610d0057610cff6109f4565b5b610d0c88828901610c5f565b94509450506040610d1f88828901610acf565b9250506060610d3088828901610acf565b9150509295509295909350565b60008060008060608587031215610d5757610d566109ef565b5b600085013567ffffffffffffffff811115610d7557610d746109f4565b5b610d8187828801610c5f565b94509450506020610d9487828801610acf565b9250506040610da587828801610acf565b91505092959194509250565b610dba81610bb0565b82525050565b6000602082019050610dd56000830184610db1565b92915050565b7f4e487b7100000000000000000000000000000000000000000000000000000000600052603260045260246000fd5b7f4e487b7100000000000000000000000000000000000000000000000000000000600052602260045260246000fd5b60006002820490506001821680610e5157607f821691505b602082108103610e6457610e63610e0a565b5b50919050565b600082825260208201905092915050565b7f63657420616e696d616c206573742064656a612061646f707465000000000000600082015250565b6000610eb1601a83610e6a565b9150610ebc82610e7b565b602082019050919050565b60006020820190508181036000830152610ee081610ea4565b9050919050565b610ef081610a19565b82525050565b6000604082019050610f0b6000830185610a8e565b610f186020830184610ee7565b9392505050565b600082905092915050565b7f4e487b7100000000000000000000000000000000000000000000000000000000600052604160045260246000fd5b60008190508160005260206000209050919050565b60006020601f8301049050919050565b600082821b905092915050565b600060088302610fbb7fffffffffffffffffffffffffffffffffffffffffffffffffffffffffffffffff82610f7e565b610fc58683610f7e565b95508019841693508086168417925050509392505050565b6000819050919050565b6000611002610ffd610ff884610a84565b610fdd565b610a84565b9050919050565b6000819050919050565b61101c83610fe7565b61103061102882611009565b848454610f8b565b825550505050565b600090565b611045611038565b611050818484611013565b505050565b5b818110156110745761106960008261103d565b600181019050611056565b5050565b601f8211156110b95761108a81610f59565b61109384610f6e565b810160208510156110a2578190505b6110b66110ae85610f6e565b830182611055565b50505b505050565b600082821c905092915050565b60006110dc600019846008026110be565b1980831691505092915050565b60006110f583836110cb565b9150826002028217905092915050565b61110f8383610f1f565b67ffffffffffffffff81111561112857611127610f2a565b5b6111328254610e39565b61113d828285611078565b6000601f83116001811461116c576000841561115a578287013590505b61116485826110e9565b8655506111cc565b601f19841661117a86610f59565b60005b828110156111a25784890135825560018201915060208501945060208101905061117d565b868310156111bf57848901356111bb601f8916826110cb565b8355505b6001600288020188555050505b50505050505050565b600081905092915050565b600081546111ed81610e39565b6111f781866111d5565b9450600182166000811461121257600181146112275761125a565b60ff198316865281151582028601935061125a565b61123085610f59565b60005b8381101561125257815481890152600182019150602081019050611233565b838801955050505b50505092915050565b600061126f82846111e0565b915081905092915050565b82818337600083830152505050565b600061129583856111d5565b93506112a283858461127a565b82840190509392505050565b60006112bb828486611289565b91508190509392505050565b7f4e487b7100000000000000000000000000000000000000000000000000000000600052601160045260246000fd5b600061130182610a84565b91507fffffffffffffffffffffffffffffffffffffffffffffffffffffffffffffffff8203611333576113326112c7565b5b600182019050919050565b61134782610b11565b67ffffffffffffffff8111156113605761135f610f2a565b5b61136a8254610e39565b611375828285611078565b600060209050601f8311600181146113a85760008415611396578287015190505b6113a085826110e9565b865550611408565b601f1984166113b686610f59565b60005b828110156113de578489015182556001820191506020850194506020810190506113b9565b868310156113fb57848901516113f7601f8916826110cb565b8355505b6001600288020188555050505b505050505050565b600061141b82610a84565b915061142683610a84565b925082820390508181111561143e5761143d6112c7565b5b9291505056fea26469706673582212201672d470e54fdfe6ba35533c76eb74c03bb2e0e7063b6213bbdff3f0d85d283264736f6c63430008110033",
  "immutableReferences": {},
  "source": "// SPDX-License-Identifier: MIT\npragma solidity 0.8.17;\n\ncontract Spa {\n\tstruct Animal {\n\t\tstring race;\n\t\tuint256 taille;\n\t\tuint256 age;\n\t\tbool isAdopted;\n\t}\n\n\tAnimal[] Animaux;\n\tmapping(address => uint256) public Adoption;\n\tevent animalAdded(uint256 id);\n\tevent animalAdopted(uint256 _id, address _addr);\n\n\t// CRUD = create read update delete\n\n\tfunction Add(\n\t\tstring calldata _race,\n\t\tuint256 _taille,\n\t\tuint256 _age\n\t) public {\n\t\tAnimaux.push(Animal(_race, _taille, _age, false));\n\t\temit animalAdded(Animaux.length - 1);\n\t}\n\n\tfunction Get(uint256 _id) public view returns (Animal memory Rex) {\n\t\treturn Rex = Animaux[_id];\n\t}\n\n\tfunction Set(\n\t\tuint256 _id,\n\t\tstring calldata _race,\n\t\tuint256 _taille,\n\t\tuint256 _age\n\t) public {\n\t\tAnimaux[_id].race = _race;\n\t\tAnimaux[_id].taille = _taille;\n\t\tAnimaux[_id].age = _age;\n\t}\n\n\tfunction Delete(uint256 _id) public {\n\t\tdelete Animaux[_id];\n\t}\n\n\t// Adoption\n\n\tfunction AdoptOne(uint256 _id) public {\n\t\trequire(Animaux[_id].isAdopted == false, \"cet animal est deja adopte\");\n\t\tAnimaux[_id].isAdopted = true;\n\t\tAdoption[msg.sender] = _id;\n\t\temit animalAdopted(_id, msg.sender);\n\t}\n\n\tfunction GetAdoption(address _addr) public view returns (Animal memory Rex) {\n\t\treturn Rex = Animaux[Adoption[_addr]];\n\t}\n\n\tfunction AdoptIfMax(\n\t\tstring calldata _race,\n\t\tuint256 _tailleMax,\n\t\tuint256 _ageMax\n\t) public returns (bool) {\n\t\tfor (uint256 i; i < Animaux.length; i++) {\n\t\t\tif (keccak256(abi.encodePacked(_race)) == keccak256(abi.encodePacked(Animaux[i].race))) {\n\t\t\t\tif (Animaux[i].taille <= _tailleMax) {\n\t\t\t\t\tif (Animaux[i].age < _ageMax) {\n\t\t\t\t\t\tif (Animaux[i].isAdopted == false) {\n\t\t\t\t\t\t\tAnimaux[i].isAdopted = true;\n\t\t\t\t\t\t\tAdoption[msg.sender] = i;\n\t\t\t\t\t\t\temit animalAdopted(i, msg.sender);\n\t\t\t\t\t\t\treturn true;\n\t\t\t\t\t\t}\n\t\t\t\t\t}\n\t\t\t\t}\n\t\t\t}\n\t\t}\n\t\treturn false;\n\t}\n}\n",
  "sourcePath": "/Users/pom/workspace/DevEthereum/spa/contracts/SpaCyril.sol",
  "compiler": {
    "name": "solc",
    "version": "0.8.17+commit.8df45f5f.Emscripten.clang"
  },
  "schemaVersion": "3.4.11",
  "updatedAt": "2023-02-27T11:35:51.781Z",
  "networkType": "ethereum",
  "devdoc": {
    "kind": "dev",
    "methods": {},
    "version": 1
  },
  "userdoc": {
    "kind": "user",
    "methods": {},
    "version": 1
  }
}