{
  "contractName": "SpaContract",
  "abi": [
    {
      "anonymous": false,
      "inputs": [
        {
          "indexed": false,
          "internalType": "uint256",
          "name": "id",
          "type": "uint256"
        },
        {
          "indexed": false,
          "internalType": "string",
          "name": "race",
          "type": "string"
        },
        {
          "indexed": false,
          "internalType": "uint256",
          "name": "age",
          "type": "uint256"
        }
      ],
      "name": "AnimalAdded",
      "type": "event"
    },
    {
      "anonymous": false,
      "inputs": [
        {
          "indexed": false,
          "internalType": "uint256",
          "name": "id",
          "type": "uint256"
        },
        {
          "indexed": false,
          "internalType": "address",
          "name": "owner",
          "type": "address"
        }
      ],
      "name": "AnimalAdopted",
      "type": "event"
    },
    {
      "anonymous": false,
      "inputs": [
        {
          "indexed": false,
          "internalType": "uint256",
          "name": "id",
          "type": "uint256"
        }
      ],
      "name": "AnimalRemoved",
      "type": "event"
    },
    {
      "anonymous": false,
      "inputs": [
        {
          "indexed": false,
          "internalType": "uint256",
          "name": "id",
          "type": "uint256"
        }
      ],
      "name": "AnimalUnadopted",
      "type": "event"
    },
    {
      "inputs": [
        {
          "internalType": "uint256",
          "name": "",
          "type": "uint256"
        }
      ],
      "name": "animalToOwner",
      "outputs": [
        {
          "internalType": "address",
          "name": "",
          "type": "address"
        }
      ],
      "stateMutability": "view",
      "type": "function",
      "constant": true
    },
    {
      "inputs": [
        {
          "internalType": "uint256",
          "name": "",
          "type": "uint256"
        }
      ],
      "name": "animals",
      "outputs": [
        {
          "internalType": "string",
          "name": "race",
          "type": "string"
        },
        {
          "internalType": "uint256",
          "name": "size",
          "type": "uint256"
        },
        {
          "internalType": "uint256",
          "name": "age",
          "type": "uint256"
        },
        {
          "internalType": "bool",
          "name": "isAdopted",
          "type": "bool"
        }
      ],
      "stateMutability": "view",
      "type": "function",
      "constant": true
    },
    {
      "inputs": [],
      "name": "getAnimalsCount",
      "outputs": [
        {
          "internalType": "uint256",
          "name": "",
          "type": "uint256"
        }
      ],
      "stateMutability": "view",
      "type": "function",
      "constant": true
    },
    {
      "inputs": [
        {
          "internalType": "uint256",
          "name": "_id",
          "type": "uint256"
        }
      ],
      "name": "getAnimal",
      "outputs": [
        {
          "components": [
            {
              "internalType": "string",
              "name": "race",
              "type": "string"
            },
            {
              "internalType": "uint256",
              "name": "size",
              "type": "uint256"
            },
            {
              "internalType": "uint256",
              "name": "age",
              "type": "uint256"
            },
            {
              "internalType": "bool",
              "name": "isAdopted",
              "type": "bool"
            }
          ],
          "internalType": "struct SpaContract.Animal",
          "name": "",
          "type": "tuple"
        }
      ],
      "stateMutability": "view",
      "type": "function",
      "constant": true
    },
    {
      "inputs": [
        {
          "internalType": "string",
          "name": "_race",
          "type": "string"
        },
        {
          "internalType": "uint256",
          "name": "_size",
          "type": "uint256"
        },
        {
          "internalType": "uint256",
          "name": "_age",
          "type": "uint256"
        }
      ],
      "name": "addAnimal",
      "outputs": [],
      "stateMutability": "nonpayable",
      "type": "function"
    },
    {
      "inputs": [],
      "name": "animalsForOwner",
      "outputs": [
        {
          "components": [
            {
              "internalType": "string",
              "name": "race",
              "type": "string"
            },
            {
              "internalType": "uint256",
              "name": "size",
              "type": "uint256"
            },
            {
              "internalType": "uint256",
              "name": "age",
              "type": "uint256"
            },
            {
              "internalType": "bool",
              "name": "isAdopted",
              "type": "bool"
            }
          ],
          "internalType": "struct SpaContract.Animal[]",
          "name": "",
          "type": "tuple[]"
        }
      ],
      "stateMutability": "view",
      "type": "function",
      "constant": true
    },
    {
      "inputs": [
        {
          "internalType": "uint256",
          "name": "id",
          "type": "uint256"
        }
      ],
      "name": "removeAnimal",
      "outputs": [],
      "stateMutability": "nonpayable",
      "type": "function"
    },
    {
      "inputs": [
        {
          "internalType": "uint256",
          "name": "id",
          "type": "uint256"
        }
      ],
      "name": "adoptAnimal",
      "outputs": [],
      "stateMutability": "nonpayable",
      "type": "function"
    },
    {
      "inputs": [
        {
          "internalType": "uint256",
          "name": "id",
          "type": "uint256"
        }
      ],
      "name": "unadoptAnimal",
      "outputs": [],
      "stateMutability": "nonpayable",
      "type": "function"
    },
    {
      "inputs": [
        {
          "internalType": "string",
          "name": "_race",
          "type": "string"
        },
        {
          "internalType": "uint256",
          "name": "_sizeMax",
          "type": "uint256"
        },
        {
          "internalType": "uint256",
          "name": "_ageMax",
          "type": "uint256"
        }
      ],
      "name": "adoptWithCriteria",
      "outputs": [
        {
          "internalType": "bool",
          "name": "",
          "type": "bool"
        }
      ],
      "stateMutability": "nonpayable",
      "type": "function"
    }
  ],
  "bytecode": "0x608060405234801561001057600080fd5b50611b78806100206000396000f3fe608060405234801561001057600080fd5b506004361061009e5760003560e01c8063aa23647611610066578063aa2364761461015c578063c2ba8d4214610178578063d147c93a14610196578063d81c513a146101c6578063e4910bb5146101f65761009e565b80630931ce67146100a35780631696e625146100c157806345d3cc81146100dd5780637e6000d41461010d578063998dd3ca14610129575b600080fd5b6100ab610212565b6040516100b89190610e69565b60405180910390f35b6100db60048036038101906100d69190610eba565b61021e565b005b6100f760048036038101906100f29190610eba565b6103aa565b6040516101049190611004565b60405180910390f35b6101276004803603810190610122919061108b565b6104ee565b005b610143600480360381019061013e9190610eba565b610621565b6040516101539493929190611158565b60405180910390f35b61017660048036038101906101719190610eba565b6106f6565b005b610180610884565b60405161018d91906112c9565b60405180910390f35b6101b060048036038101906101ab919061108b565b610a90565b6040516101bd91906112eb565b60405180910390f35b6101e060048036038101906101db9190610eba565b610bed565b6040516101ed9190611347565b60405180910390f35b610210600480360381019061020b9190610eba565b610c20565b005b60008080549050905090565b806000805490508110610266576040517f08c379a000000000000000000000000000000000000000000000000000000000815260040161025d906113ae565b60405180910390fd5b600115156000838154811061027e5761027d6113ce565b5b906000526020600020906004020160030160009054906101000a900460ff161515146102df576040517f08c379a00000000000000000000000000000000000000000000000000000000081526004016102d690611449565b60405180910390fd5b60008083815481106102f4576102f36113ce565b5b906000526020600020906004020160030160006101000a81548160ff02191690831515021790555060006001600084815260200190815260200160002060006101000a81548173ffffffffffffffffffffffffffffffffffffffff021916908373ffffffffffffffffffffffffffffffffffffffff1602179055507fb665199dd0efd926843977edd48bde4ff227d30f9c1ca16122de67142720f8138260405161039e9190610e69565b60405180910390a15050565b6103b2610dc9565b60008054905082106103f9576040517f08c379a00000000000000000000000000000000000000000000000000000000081526004016103f0906113ae565b60405180910390fd5b6000828154811061040d5761040c6113ce565b5b906000526020600020906004020160405180608001604052908160008201805461043690611498565b80601f016020809104026020016040519081016040528092919081815260200182805461046290611498565b80156104af5780601f10610484576101008083540402835291602001916104af565b820191906000526020600020905b81548152906001019060200180831161049257829003601f168201915b5050505050815260200160018201548152602001600282015481526020016003820160009054906101000a900460ff1615151515815250509050919050565b6000604051806080016040528086868080601f016020809104026020016040519081016040528093929190818152602001838380828437600081840152601f19601f820116905080830192505050505050508152602001848152602001838152602001600015158152509080600181540180825580915050600190039060005260206000209060040201600090919091909150600082015181600001908161059691906116a4565b50602082015181600101556040820151816002015560608201518160030160006101000a81548160ff02191690831515021790555050507fbe28f2978fce0559489cf86e7254459c71844fe5733f473d28531bbfafa0b76e600160008054905061060091906117a5565b8585846040516106139493929190611815565b60405180910390a150505050565b6000818154811061063157600080fd5b906000526020600020906004020160009150905080600001805461065490611498565b80601f016020809104026020016040519081016040528092919081815260200182805461068090611498565b80156106cd5780601f106106a2576101008083540402835291602001916106cd565b820191906000526020600020905b8154815290600101906020018083116106b057829003601f168201915b5050505050908060010154908060020154908060030160009054906101000a900460ff16905084565b80600080549050811061073e576040517f08c379a0000000000000000000000000000000000000000000000000000000008152600401610735906113ae565b60405180910390fd5b6000151560008381548110610756576107556113ce565b5b906000526020600020906004020160030160009054906101000a900460ff161515146107b7576040517f08c379a00000000000000000000000000000000000000000000000000000000081526004016107ae906118a1565b60405180910390fd5b6001600083815481106107cd576107cc6113ce565b5b906000526020600020906004020160030160006101000a81548160ff021916908315150217905550336001600084815260200190815260200160002060006101000a81548173ffffffffffffffffffffffffffffffffffffffff021916908373ffffffffffffffffffffffffffffffffffffffff1602179055507f07978c69c99219bd6e9a7e408776647edf330a544aebe074272bd16793c1f92782336040516108789291906118c1565b60405180910390a15050565b60606000808054905067ffffffffffffffff8111156108a6576108a56114c9565b5b6040519080825280602002602001820160405280156108df57816020015b6108cc610dc9565b8152602001906001900390816108c45790505b5090506000805b600080549050811015610a87573373ffffffffffffffffffffffffffffffffffffffff166001600083815260200190815260200160002060009054906101000a900473ffffffffffffffffffffffffffffffffffffffff1673ffffffffffffffffffffffffffffffffffffffff1603610a74576000818154811061096d5761096c6113ce565b5b906000526020600020906004020160405180608001604052908160008201805461099690611498565b80601f01602080910402602001604051908101604052809291908181526020018280546109c290611498565b8015610a0f5780601f106109e457610100808354040283529160200191610a0f565b820191906000526020600020905b8154815290600101906020018083116109f257829003601f168201915b5050505050815260200160018201548152602001600282015481526020016003820160009054906101000a900460ff161515151581525050838381518110610a5a57610a596113ce565b5b60200260200101819052508180610a70906118ea565b9250505b8080610a7f906118ea565b9150506108e6565b50819250505090565b600080600090505b600080549050811015610bdf578585604051602001610ab8929190611962565b6040516020818303038152906040528051906020012060008281548110610ae257610ae16113ce565b5b9060005260206000209060040201600001604051602001610b0391906119fe565b6040516020818303038152906040528051906020012003610bcc578360008281548110610b3357610b326113ce565b5b9060005260206000209060040201600101541015610bcb578260008281548110610b6057610b5f6113ce565b5b9060005260206000209060040201600201541015610bca576000151560008281548110610b9057610b8f6113ce565b5b906000526020600020906004020160030160009054906101000a900460ff16151503610bc957610bbf816106f6565b6001915050610be5565b5b5b5b8080610bd7906118ea565b915050610a98565b50600090505b949350505050565b60016020528060005260406000206000915054906101000a900473ffffffffffffffffffffffffffffffffffffffff1681565b806000805490508110610c68576040517f08c379a0000000000000000000000000000000000000000000000000000000008152600401610c5f906113ae565b60405180910390fd5b6001600080549050610c7a91906117a5565b8214610d2f5760006001600080549050610c9491906117a5565b81548110610ca557610ca46113ce565b5b906000526020600020906004020160008381548110610cc757610cc66113ce565b5b906000526020600020906004020160008201816000019081610ce99190611a2b565b5060018201548160010155600282015481600201556003820160009054906101000a900460ff168160030160006101000a81548160ff0219169083151502179055509050505b6000805480610d4157610d40611b13565b5b600190038181906000526020600020906004020160008082016000610d669190610df3565b600182016000905560028201600090556003820160006101000a81549060ff0219169055505090557f145a45fd128be2d0058bcfc5a4727361e81832d0ba9ef237b602e153123f651882604051610dbd9190610e69565b60405180910390a15050565b60405180608001604052806060815260200160008152602001600081526020016000151581525090565b508054610dff90611498565b6000825580601f10610e115750610e30565b601f016020900490600052602060002090810190610e2f9190610e33565b5b50565b5b80821115610e4c576000816000905550600101610e34565b5090565b6000819050919050565b610e6381610e50565b82525050565b6000602082019050610e7e6000830184610e5a565b92915050565b600080fd5b600080fd5b610e9781610e50565b8114610ea257600080fd5b50565b600081359050610eb481610e8e565b92915050565b600060208284031215610ed057610ecf610e84565b5b6000610ede84828501610ea5565b91505092915050565b600081519050919050565b600082825260208201905092915050565b60005b83811015610f21578082015181840152602081019050610f06565b60008484015250505050565b6000601f19601f8301169050919050565b6000610f4982610ee7565b610f538185610ef2565b9350610f63818560208601610f03565b610f6c81610f2d565b840191505092915050565b610f8081610e50565b82525050565b60008115159050919050565b610f9b81610f86565b82525050565b60006080830160008301518482036000860152610fbe8282610f3e565b9150506020830151610fd36020860182610f77565b506040830151610fe66040860182610f77565b506060830151610ff96060860182610f92565b508091505092915050565b6000602082019050818103600083015261101e8184610fa1565b905092915050565b600080fd5b600080fd5b600080fd5b60008083601f84011261104b5761104a611026565b5b8235905067ffffffffffffffff8111156110685761106761102b565b5b60208301915083600182028301111561108457611083611030565b5b9250929050565b600080600080606085870312156110a5576110a4610e84565b5b600085013567ffffffffffffffff8111156110c3576110c2610e89565b5b6110cf87828801611035565b945094505060206110e287828801610ea5565b92505060406110f387828801610ea5565b91505092959194509250565b600082825260208201905092915050565b600061111b82610ee7565b61112581856110ff565b9350611135818560208601610f03565b61113e81610f2d565b840191505092915050565b61115281610f86565b82525050565b600060808201905081810360008301526111728187611110565b90506111816020830186610e5a565b61118e6040830185610e5a565b61119b6060830184611149565b95945050505050565b600081519050919050565b600082825260208201905092915050565b6000819050602082019050919050565b600060808301600083015184820360008601526111ed8282610f3e565b91505060208301516112026020860182610f77565b5060408301516112156040860182610f77565b5060608301516112286060860182610f92565b508091505092915050565b600061123f83836111d0565b905092915050565b6000602082019050919050565b600061125f826111a4565b61126981856111af565b93508360208202850161127b856111c0565b8060005b858110156112b757848403895281516112988582611233565b94506112a383611247565b925060208a0199505060018101905061127f565b50829750879550505050505092915050565b600060208201905081810360008301526112e38184611254565b905092915050565b60006020820190506113006000830184611149565b92915050565b600073ffffffffffffffffffffffffffffffffffffffff82169050919050565b600061133182611306565b9050919050565b61134181611326565b82525050565b600060208201905061135c6000830184611338565b92915050565b7f416e696d616c20646f6573206e6f742065786973740000000000000000000000600082015250565b60006113986015836110ff565b91506113a382611362565b602082019050919050565b600060208201905081810360008301526113c78161138b565b9050919050565b7f4e487b7100000000000000000000000000000000000000000000000000000000600052603260045260246000fd5b7f416e696d616c206973206e6f742061646f707465640000000000000000000000600082015250565b60006114336015836110ff565b915061143e826113fd565b602082019050919050565b6000602082019050818103600083015261146281611426565b9050919050565b7f4e487b7100000000000000000000000000000000000000000000000000000000600052602260045260246000fd5b600060028204905060018216806114b057607f821691505b6020821081036114c3576114c2611469565b5b50919050565b7f4e487b7100000000000000000000000000000000000000000000000000000000600052604160045260246000fd5b60008190508160005260206000209050919050565b60006020601f8301049050919050565b600082821b905092915050565b60006008830261155a7fffffffffffffffffffffffffffffffffffffffffffffffffffffffffffffffff8261151d565b611564868361151d565b95508019841693508086168417925050509392505050565b6000819050919050565b60006115a161159c61159784610e50565b61157c565b610e50565b9050919050565b6000819050919050565b6115bb83611586565b6115cf6115c7826115a8565b84845461152a565b825550505050565b600090565b6115e46115d7565b6115ef8184846115b2565b505050565b5b81811015611613576116086000826115dc565b6001810190506115f5565b5050565b601f82111561165857611629816114f8565b6116328461150d565b81016020851015611641578190505b61165561164d8561150d565b8301826115f4565b50505b505050565b600082821c905092915050565b600061167b6000198460080261165d565b1980831691505092915050565b6000611694838361166a565b9150826002028217905092915050565b6116ad82610ee7565b67ffffffffffffffff8111156116c6576116c56114c9565b5b6116d08254611498565b6116db828285611617565b600060209050601f83116001811461170e57600084156116fc578287015190505b6117068582611688565b86555061176e565b601f19841661171c866114f8565b60005b828110156117445784890151825560018201915060208501945060208101905061171f565b86831015611761578489015161175d601f89168261166a565b8355505b6001600288020188555050505b505050505050565b7f4e487b7100000000000000000000000000000000000000000000000000000000600052601160045260246000fd5b60006117b082610e50565b91506117bb83610e50565b92508282039050818111156117d3576117d2611776565b5b92915050565b82818337600083830152505050565b60006117f483856110ff565b93506118018385846117d9565b61180a83610f2d565b840190509392505050565b600060608201905061182a6000830187610e5a565b818103602083015261183d8185876117e8565b905061184c6040830184610e5a565b95945050505050565b7f416e696d616c20697320616c72656164792061646f7074656400000000000000600082015250565b600061188b6019836110ff565b915061189682611855565b602082019050919050565b600060208201905081810360008301526118ba8161187e565b9050919050565b60006040820190506118d66000830185610e5a565b6118e36020830184611338565b9392505050565b60006118f582610e50565b91507fffffffffffffffffffffffffffffffffffffffffffffffffffffffffffffffff820361192757611926611776565b5b600182019050919050565b600081905092915050565b60006119498385611932565b93506119568385846117d9565b82840190509392505050565b600061196f82848661193d565b91508190509392505050565b6000815461198881611498565b6119928186611932565b945060018216600081146119ad57600181146119c2576119f5565b60ff19831686528115158202860193506119f5565b6119cb856114f8565b60005b838110156119ed578154818901526001820191506020810190506119ce565b838801955050505b50505092915050565b6000611a0a828461197b565b915081905092915050565b600081549050611a2481611498565b9050919050565b818103611a39575050611b11565b611a4282611a15565b67ffffffffffffffff811115611a5b57611a5a6114c9565b5b611a658254611498565b611a70828285611617565b6000601f831160018114611a9f5760008415611a8d578287015490505b611a978582611688565b865550611b0a565b601f198416611aad876114f8565b9650611ab8866114f8565b60005b82811015611ae057848901548255600182019150600185019450602081019050611abb565b86831015611afd5784890154611af9601f89168261166a565b8355505b6001600288020188555050505b5050505050505b565b7f4e487b7100000000000000000000000000000000000000000000000000000000600052603160045260246000fdfea26469706673582212201e2b11bc8b20f1c3028546719dcf98a185d32310788476bbbc22f54203e459b064736f6c63430008110033",
  "immutableReferences": {},
  "source": "// SPDX-License-Identifier: GPL-3.0\n\npragma solidity 0.8.17;\n\n/**\n * @title SpaContract\n *\n * fonctionnalits ok\n * event ok\n * visibilit ok\n * require ok\n * optimisation ok\n * test\n */\ncontract SpaContract {\n\tstruct Animal {\n\t\tstring race;\n\t\tuint256 size;\n\t\tuint256 age;\n\t\tbool isAdopted;\n\t}\n\n\tAnimal[] public animals;\n\tmapping(uint256 => address) public animalToOwner;\n\n\tevent AnimalAdded(uint256 id, string race, uint256 age);\n\tevent AnimalAdopted(uint256 id, address owner);\n\tevent AnimalUnadopted(uint256 id);\n\tevent AnimalRemoved(uint256 id);\n\n\tfunction getAnimalsCount() external view returns (uint256) {\n\t\treturn animals.length;\n\t}\n\n\tfunction getAnimal(uint256 _id) external view returns (Animal memory) {\n\t\trequire(_id < animals.length, \"Animal does not exist\");\n\n\t\treturn animals[_id];\n\t}\n\n\tfunction addAnimal(\n\t\tstring calldata _race,\n\t\tuint256 _size,\n\t\tuint256 _age\n\t) external {\n\t\tanimals.push(Animal(_race, _size, _age, false));\n\n\t\temit AnimalAdded(animals.length - 1, _race, _age);\n\t}\n\n\tmodifier existsAnimal(uint256 id) {\n\t\trequire(id < animals.length, \"Animal does not exist\");\n\t\t_;\n\t}\n\n\tfunction animalsForOwner() external view returns (Animal[] memory) {\n\t\tAnimal[] memory result = new Animal[](animals.length); // Vrifier que c'est une bonne pratique. Je comprends ici qu'on prend une taille maximum pour le tableau.\n\t\tuint256 counter = 0;\n\t\tfor (uint256 i = 0; i < animals.length; i++) {\n\t\t\tif (animalToOwner[i] == msg.sender) {\n\t\t\t\tresult[counter] = animals[i];\n\t\t\t\tcounter++;\n\t\t\t}\n\t\t}\n\t\treturn result;\n\t}\n\n\tfunction removeAnimal(uint256 id) external existsAnimal(id) {\n\t\t// replace the animal to remove with the last animal\n\t\tif (id != animals.length - 1) {\n\t\t\tanimals[id] = animals[animals.length - 1];\n\t\t}\n\t\t// remove the last animal\n\t\tanimals.pop();\n\n\t\temit AnimalRemoved(id);\n\t}\n\n\tfunction adoptAnimal(uint256 id) public existsAnimal(id) {\n\t\trequire(animals[id].isAdopted == false, \"Animal is already adopted\");\n\n\t\tanimals[id].isAdopted = true;\n\t\tanimalToOwner[id] = msg.sender;\n\n\t\temit AnimalAdopted(id, msg.sender);\n\t}\n\n\tfunction unadoptAnimal(uint256 id) external existsAnimal(id) {\n\t\trequire(animals[id].isAdopted == true, \"Animal is not adopted\");\n\n\t\tanimals[id].isAdopted = false;\n\t\tanimalToOwner[id] = address(0);\n\n\t\temit AnimalUnadopted(id);\n\t}\n\n\t// Adopt the first animal that matchs the criteria\n\tfunction adoptWithCriteria(\n\t\tstring calldata _race,\n\t\tuint256 _sizeMax,\n\t\tuint256 _ageMax\n\t) external returns (bool) {\n\t\tfor (uint256 i = 0; i < animals.length; i++) {\n\t\t\tif (keccak256(abi.encodePacked(animals[i].race)) == keccak256(abi.encodePacked(_race))) {\n\t\t\t\tif (animals[i].size < _sizeMax) {\n\t\t\t\t\tif (animals[i].age < _ageMax) {\n\t\t\t\t\t\tif (animals[i].isAdopted == false) {\n\t\t\t\t\t\t\tadoptAnimal(i);\n\t\t\t\t\t\t\treturn true;\n\t\t\t\t\t\t}\n\t\t\t\t\t}\n\t\t\t\t}\n\t\t\t}\n\t\t}\n\t\treturn false;\n\t}\n}\n",
  "sourcePath": "/Users/pom/workspace/DevEthereum/spa/contracts/Spa.sol",
  "compiler": {
    "name": "solc",
    "version": "0.8.17+commit.8df45f5f.Emscripten.clang"
  },
  "schemaVersion": "3.4.11",
  "updatedAt": "2023-02-27T11:35:51.776Z",
  "networkType": "ethereum",
  "devdoc": {
    "kind": "dev",
    "methods": {},
    "title": "SpaContract fonctionnalits ok event ok visibilit ok require ok optimisation ok test",
    "version": 1
  },
  "userdoc": {
    "kind": "user",
    "methods": {},
    "version": 1
  }
}