{
  "contractName": "SpaContract",
  "abi": [
    {
      "anonymous": false,
      "inputs": [
        {
          "indexed": false,
          "internalType": "string",
          "name": "race",
          "type": "string"
        },
        {
          "indexed": false,
          "internalType": "uint256",
          "name": "age",
          "type": "uint256"
        }
      ],
      "name": "AnimalAdded",
      "type": "event"
    },
    {
      "anonymous": false,
      "inputs": [
        {
          "indexed": false,
          "internalType": "uint256",
          "name": "id",
          "type": "uint256"
        },
        {
          "indexed": false,
          "internalType": "address",
          "name": "owner",
          "type": "address"
        }
      ],
      "name": "AnimalAdopted",
      "type": "event"
    },
    {
      "anonymous": false,
      "inputs": [
        {
          "indexed": false,
          "internalType": "uint256",
          "name": "id",
          "type": "uint256"
        }
      ],
      "name": "AnimalRemoved",
      "type": "event"
    },
    {
      "anonymous": false,
      "inputs": [
        {
          "indexed": false,
          "internalType": "uint256",
          "name": "id",
          "type": "uint256"
        }
      ],
      "name": "AnimalUnadopted",
      "type": "event"
    },
    {
      "inputs": [
        {
          "internalType": "uint256",
          "name": "",
          "type": "uint256"
        }
      ],
      "name": "animalToOwner",
      "outputs": [
        {
          "internalType": "address",
          "name": "",
          "type": "address"
        }
      ],
      "stateMutability": "view",
      "type": "function",
      "constant": true
    },
    {
      "inputs": [
        {
          "internalType": "uint256",
          "name": "",
          "type": "uint256"
        }
      ],
      "name": "animals",
      "outputs": [
        {
          "internalType": "string",
          "name": "race",
          "type": "string"
        },
        {
          "internalType": "uint256",
          "name": "size",
          "type": "uint256"
        },
        {
          "internalType": "uint256",
          "name": "age",
          "type": "uint256"
        },
        {
          "internalType": "bool",
          "name": "isAdopted",
          "type": "bool"
        }
      ],
      "stateMutability": "view",
      "type": "function",
      "constant": true
    },
    {
      "inputs": [
        {
          "internalType": "string",
          "name": "_race",
          "type": "string"
        },
        {
          "internalType": "uint256",
          "name": "_size",
          "type": "uint256"
        },
        {
          "internalType": "uint256",
          "name": "_age",
          "type": "uint256"
        }
      ],
      "name": "addAnimal",
      "outputs": [],
      "stateMutability": "nonpayable",
      "type": "function"
    },
    {
      "inputs": [
        {
          "internalType": "uint256",
          "name": "id",
          "type": "uint256"
        }
      ],
      "name": "removeAnimal",
      "outputs": [],
      "stateMutability": "nonpayable",
      "type": "function"
    },
    {
      "inputs": [
        {
          "internalType": "uint256",
          "name": "id",
          "type": "uint256"
        }
      ],
      "name": "adoptAnimal",
      "outputs": [],
      "stateMutability": "nonpayable",
      "type": "function"
    },
    {
      "inputs": [
        {
          "internalType": "uint256",
          "name": "id",
          "type": "uint256"
        }
      ],
      "name": "unadoptAnimal",
      "outputs": [],
      "stateMutability": "nonpayable",
      "type": "function"
    },
    {
      "inputs": [],
      "name": "getAnimalsCount",
      "outputs": [
        {
          "internalType": "uint256",
          "name": "",
          "type": "uint256"
        }
      ],
      "stateMutability": "view",
      "type": "function",
      "constant": true
    },
    {
      "inputs": [
        {
          "internalType": "uint256",
          "name": "id",
          "type": "uint256"
        }
      ],
      "name": "getAnimal",
      "outputs": [
        {
          "components": [
            {
              "internalType": "string",
              "name": "race",
              "type": "string"
            },
            {
              "internalType": "uint256",
              "name": "size",
              "type": "uint256"
            },
            {
              "internalType": "uint256",
              "name": "age",
              "type": "uint256"
            },
            {
              "internalType": "bool",
              "name": "isAdopted",
              "type": "bool"
            }
          ],
          "internalType": "struct SpaContract.Animal",
          "name": "",
          "type": "tuple"
        }
      ],
      "stateMutability": "view",
      "type": "function",
      "constant": true
    },
    {
      "inputs": [
        {
          "internalType": "string",
          "name": "_race",
          "type": "string"
        },
        {
          "internalType": "uint256",
          "name": "_size",
          "type": "uint256"
        },
        {
          "internalType": "uint256",
          "name": "_age",
          "type": "uint256"
        }
      ],
      "name": "adoptWithCriteria",
      "outputs": [],
      "stateMutability": "nonpayable",
      "type": "function"
    }
  ],
  "bytecode": "0x608060405234801561001057600080fd5b5061173d806100206000396000f3fe608060405234801561001057600080fd5b50600436106100935760003560e01c8063998dd3ca11610066578063998dd3ca1461011e578063aa23647614610151578063d147c93a1461016d578063d81c513a14610189578063e4910bb5146101b957610093565b80630931ce67146100985780631696e625146100b657806345d3cc81146100d25780637e6000d414610102575b600080fd5b6100a06101d5565b6040516100ad9190610b9e565b60405180910390f35b6100d060048036038101906100cb9190610bef565b6101e1565b005b6100ec60048036038101906100e79190610bef565b61036d565b6040516100f99190610d39565b60405180910390f35b61011c60048036038101906101179190610dc0565b61046a565b005b61013860048036038101906101339190610bef565b61058a565b6040516101489493929190610e8d565b60405180910390f35b61016b60048036038101906101669190610bef565b61065f565b005b61018760048036038101906101829190610dc0565b6107ed565b005b6101a3600480360381019061019e9190610bef565b61093b565b6040516101b09190610f1a565b60405180910390f35b6101d360048036038101906101ce9190610bef565b61096e565b005b60008080549050905090565b806000805490508110610229576040517f08c379a000000000000000000000000000000000000000000000000000000000815260040161022090610f81565b60405180910390fd5b600115156000838154811061024157610240610fa1565b5b906000526020600020906004020160030160009054906101000a900460ff161515146102a2576040517f08c379a00000000000000000000000000000000000000000000000000000000081526004016102999061101c565b60405180910390fd5b60008083815481106102b7576102b6610fa1565b5b906000526020600020906004020160030160006101000a81548160ff02191690831515021790555060006001600084815260200190815260200160002060006101000a81548173ffffffffffffffffffffffffffffffffffffffff021916908373ffffffffffffffffffffffffffffffffffffffff1602179055507fb665199dd0efd926843977edd48bde4ff227d30f9c1ca16122de67142720f813826040516103619190610b9e565b60405180910390a15050565b610375610afe565b6000828154811061038957610388610fa1565b5b90600052602060002090600402016040518060800160405290816000820180546103b29061106b565b80601f01602080910402602001604051908101604052809291908181526020018280546103de9061106b565b801561042b5780601f106104005761010080835404028352916020019161042b565b820191906000526020600020905b81548152906001019060200180831161040e57829003601f168201915b5050505050815260200160018201548152602001600282015481526020016003820160009054906101000a900460ff1615151515815250509050919050565b6000604051806080016040528086868080601f016020809104026020016040519081016040528093929190818152602001838380828437600081840152601f19601f82011690508083019250505050505050815260200184815260200183815260200160001515815250908060018154018082558091505060019003906000526020600020906004020160009091909190915060008201518160000190816105129190611277565b50602082015181600101556040820151816002015560608201518160030160006101000a81548160ff02191690831515021790555050507f028de9623f7afbb99b2512ca46446d080ba82bc6fdc67a6534cb158db51ab41484848360405161057c93929190611385565b60405180910390a150505050565b6000818154811061059a57600080fd5b90600052602060002090600402016000915090508060000180546105bd9061106b565b80601f01602080910402602001604051908101604052809291908181526020018280546105e99061106b565b80156106365780601f1061060b57610100808354040283529160200191610636565b820191906000526020600020905b81548152906001019060200180831161061957829003601f168201915b5050505050908060010154908060020154908060030160009054906101000a900460ff16905084565b8060008054905081106106a7576040517f08c379a000000000000000000000000000000000000000000000000000000000815260040161069e90610f81565b60405180910390fd5b60001515600083815481106106bf576106be610fa1565b5b906000526020600020906004020160030160009054906101000a900460ff16151514610720576040517f08c379a000000000000000000000000000000000000000000000000000000000815260040161071790611403565b60405180910390fd5b60016000838154811061073657610735610fa1565b5b906000526020600020906004020160030160006101000a81548160ff021916908315150217905550336001600084815260200190815260200160002060006101000a81548173ffffffffffffffffffffffffffffffffffffffff021916908373ffffffffffffffffffffffffffffffffffffffff1602179055507f07978c69c99219bd6e9a7e408776647edf330a544aebe074272bd16793c1f92782336040516107e1929190611423565b60405180910390a15050565b60005b60008054905081101561093357848460405160200161081092919061147c565b604051602081830303815290604052805190602001206000828154811061083a57610839610fa1565b5b906000526020600020906004020160000160405160200161085b9190611518565b604051602081830303815290604052805190602001200361092057826000828154811061088b5761088a610fa1565b5b906000526020600020906004020160010154101561091f5781600082815481106108b8576108b7610fa1565b5b906000526020600020906004020160020154101561091e5760001515600082815481106108e8576108e7610fa1565b5b906000526020600020906004020160030160009054906101000a900460ff1615150361091d576109178161065f565b50610935565b5b5b5b808061092b9061155e565b9150506107f0565b505b50505050565b60016020528060005260406000206000915054906101000a900473ffffffffffffffffffffffffffffffffffffffff1681565b8060008054905081106109b6576040517f08c379a00000000000000000000000000000000000000000000000000000000081526004016109ad90610f81565b60405180910390fd5b600060016000805490506109ca91906115a6565b815481106109db576109da610fa1565b5b9060005260206000209060040201600083815481106109fd576109fc610fa1565b5b906000526020600020906004020160008201816000019081610a1f91906115f0565b5060018201548160010155600282015481600201556003820160009054906101000a900460ff168160030160006101000a81548160ff0219169083151502179055509050506000805480610a7657610a756116d8565b5b600190038181906000526020600020906004020160008082016000610a9b9190610b28565b600182016000905560028201600090556003820160006101000a81549060ff0219169055505090557f145a45fd128be2d0058bcfc5a4727361e81832d0ba9ef237b602e153123f651882604051610af29190610b9e565b60405180910390a15050565b60405180608001604052806060815260200160008152602001600081526020016000151581525090565b508054610b349061106b565b6000825580601f10610b465750610b65565b601f016020900490600052602060002090810190610b649190610b68565b5b50565b5b80821115610b81576000816000905550600101610b69565b5090565b6000819050919050565b610b9881610b85565b82525050565b6000602082019050610bb36000830184610b8f565b92915050565b600080fd5b600080fd5b610bcc81610b85565b8114610bd757600080fd5b50565b600081359050610be981610bc3565b92915050565b600060208284031215610c0557610c04610bb9565b5b6000610c1384828501610bda565b91505092915050565b600081519050919050565b600082825260208201905092915050565b60005b83811015610c56578082015181840152602081019050610c3b565b60008484015250505050565b6000601f19601f8301169050919050565b6000610c7e82610c1c565b610c888185610c27565b9350610c98818560208601610c38565b610ca181610c62565b840191505092915050565b610cb581610b85565b82525050565b60008115159050919050565b610cd081610cbb565b82525050565b60006080830160008301518482036000860152610cf38282610c73565b9150506020830151610d086020860182610cac565b506040830151610d1b6040860182610cac565b506060830151610d2e6060860182610cc7565b508091505092915050565b60006020820190508181036000830152610d538184610cd6565b905092915050565b600080fd5b600080fd5b600080fd5b60008083601f840112610d8057610d7f610d5b565b5b8235905067ffffffffffffffff811115610d9d57610d9c610d60565b5b602083019150836001820283011115610db957610db8610d65565b5b9250929050565b60008060008060608587031215610dda57610dd9610bb9565b5b600085013567ffffffffffffffff811115610df857610df7610bbe565b5b610e0487828801610d6a565b94509450506020610e1787828801610bda565b9250506040610e2887828801610bda565b91505092959194509250565b600082825260208201905092915050565b6000610e5082610c1c565b610e5a8185610e34565b9350610e6a818560208601610c38565b610e7381610c62565b840191505092915050565b610e8781610cbb565b82525050565b60006080820190508181036000830152610ea78187610e45565b9050610eb66020830186610b8f565b610ec36040830185610b8f565b610ed06060830184610e7e565b95945050505050565b600073ffffffffffffffffffffffffffffffffffffffff82169050919050565b6000610f0482610ed9565b9050919050565b610f1481610ef9565b82525050565b6000602082019050610f2f6000830184610f0b565b92915050565b7f416e696d616c20646f6573206e6f742065786973740000000000000000000000600082015250565b6000610f6b601583610e34565b9150610f7682610f35565b602082019050919050565b60006020820190508181036000830152610f9a81610f5e565b9050919050565b7f4e487b7100000000000000000000000000000000000000000000000000000000600052603260045260246000fd5b7f416e696d616c206973206e6f742061646f707465640000000000000000000000600082015250565b6000611006601583610e34565b915061101182610fd0565b602082019050919050565b6000602082019050818103600083015261103581610ff9565b9050919050565b7f4e487b7100000000000000000000000000000000000000000000000000000000600052602260045260246000fd5b6000600282049050600182168061108357607f821691505b6020821081036110965761109561103c565b5b50919050565b7f4e487b7100000000000000000000000000000000000000000000000000000000600052604160045260246000fd5b60008190508160005260206000209050919050565b60006020601f8301049050919050565b600082821b905092915050565b60006008830261112d7fffffffffffffffffffffffffffffffffffffffffffffffffffffffffffffffff826110f0565b61113786836110f0565b95508019841693508086168417925050509392505050565b6000819050919050565b600061117461116f61116a84610b85565b61114f565b610b85565b9050919050565b6000819050919050565b61118e83611159565b6111a261119a8261117b565b8484546110fd565b825550505050565b600090565b6111b76111aa565b6111c2818484611185565b505050565b5b818110156111e6576111db6000826111af565b6001810190506111c8565b5050565b601f82111561122b576111fc816110cb565b611205846110e0565b81016020851015611214578190505b611228611220856110e0565b8301826111c7565b50505b505050565b600082821c905092915050565b600061124e60001984600802611230565b1980831691505092915050565b6000611267838361123d565b9150826002028217905092915050565b61128082610c1c565b67ffffffffffffffff8111156112995761129861109c565b5b6112a3825461106b565b6112ae8282856111ea565b600060209050601f8311600181146112e157600084156112cf578287015190505b6112d9858261125b565b865550611341565b601f1984166112ef866110cb565b60005b82811015611317578489015182556001820191506020850194506020810190506112f2565b868310156113345784890151611330601f89168261123d565b8355505b6001600288020188555050505b505050505050565b82818337600083830152505050565b60006113648385610e34565b9350611371838584611349565b61137a83610c62565b840190509392505050565b600060408201905081810360008301526113a0818587611358565b90506113af6020830184610b8f565b949350505050565b7f416e696d616c20697320616c72656164792061646f7074656400000000000000600082015250565b60006113ed601983610e34565b91506113f8826113b7565b602082019050919050565b6000602082019050818103600083015261141c816113e0565b9050919050565b60006040820190506114386000830185610b8f565b6114456020830184610f0b565b9392505050565b600081905092915050565b6000611463838561144c565b9350611470838584611349565b82840190509392505050565b6000611489828486611457565b91508190509392505050565b600081546114a28161106b565b6114ac818661144c565b945060018216600081146114c757600181146114dc5761150f565b60ff198316865281151582028601935061150f565b6114e5856110cb565b60005b83811015611507578154818901526001820191506020810190506114e8565b838801955050505b50505092915050565b60006115248284611495565b915081905092915050565b7f4e487b7100000000000000000000000000000000000000000000000000000000600052601160045260246000fd5b600061156982610b85565b91507fffffffffffffffffffffffffffffffffffffffffffffffffffffffffffffffff820361159b5761159a61152f565b5b600182019050919050565b60006115b182610b85565b91506115bc83610b85565b92508282039050818111156115d4576115d361152f565b5b92915050565b6000815490506115e98161106b565b9050919050565b8181036115fe5750506116d6565b611607826115da565b67ffffffffffffffff8111156116205761161f61109c565b5b61162a825461106b565b6116358282856111ea565b6000601f8311600181146116645760008415611652578287015490505b61165c858261125b565b8655506116cf565b601f198416611672876110cb565b965061167d866110cb565b60005b828110156116a557848901548255600182019150600185019450602081019050611680565b868310156116c257848901546116be601f89168261123d565b8355505b6001600288020188555050505b5050505050505b565b7f4e487b7100000000000000000000000000000000000000000000000000000000600052603160045260246000fdfea26469706673582212209c3d376bd7328d98f62d5577cf243399fd2870acacdd7ccd0d418aeafe50d36564736f6c63430008110033",
  "immutableReferences": {},
  "source": "// SPDX-License-Identifier: GPL-3.0\n\npragma solidity 0.8.17;\n\n/**\n * @title SpaContract\n *\n * fonctionnalits ok\n * event ok\n * visibilit ok\n * require ok\n * optimisation ok\n * test\n */\ncontract SpaContract {\n\tstruct Animal {\n\t\tstring race;\n\t\tuint256 size;\n\t\tuint256 age;\n\t\tbool isAdopted;\n\t}\n\n\tAnimal[] public animals;\n\tmapping(uint256 => address) public animalToOwner;\n\n\tevent AnimalAdded(string race, uint256 age);\n\tevent AnimalAdopted(uint256 id, address owner);\n\tevent AnimalUnadopted(uint256 id);\n\tevent AnimalRemoved(uint256 id);\n\n\tfunction addAnimal(\n\t\tstring calldata _race,\n\t\tuint256 _size,\n\t\tuint256 _age\n\t) external {\n\t\tanimals.push(Animal(_race, _size, _age, false));\n\n\t\temit AnimalAdded(_race, _age);\n\t}\n\n\tmodifier existsAnimal(uint256 id) {\n\t\trequire(id < animals.length, \"Animal does not exist\");\n\t\t_;\n\t}\n\n\tfunction removeAnimal(uint256 id) external existsAnimal(id) {\n\t\t// replace the animal to remove with the last animal\n\t\tanimals[id] = animals[animals.length - 1];\n\t\t// remove the last animal\n\t\tanimals.pop();\n\n\t\temit AnimalRemoved(id);\n\t}\n\n\tfunction adoptAnimal(uint256 id) public existsAnimal(id) {\n\t\trequire(animals[id].isAdopted == false, \"Animal is already adopted\");\n\n\t\tanimals[id].isAdopted = true;\n\t\tanimalToOwner[id] = msg.sender;\n\n\t\temit AnimalAdopted(id, msg.sender);\n\t}\n\n\tfunction unadoptAnimal(uint256 id) external existsAnimal(id) {\n\t\trequire(animals[id].isAdopted == true, \"Animal is not adopted\");\n\n\t\tanimals[id].isAdopted = false;\n\t\tanimalToOwner[id] = address(0);\n\n\t\temit AnimalUnadopted(id);\n\t}\n\n\tfunction getAnimalsCount() external view returns (uint256) {\n\t\treturn animals.length;\n\t}\n\n\tfunction getAnimal(uint256 id) external view returns (Animal memory) {\n\t\treturn animals[id];\n\t}\n\n\t// Adopt the first animal that matchs the criteria\n\tfunction adoptWithCriteria(\n\t\tstring calldata _race,\n\t\tuint256 _size,\n\t\tuint256 _age\n\t) external {\n\t\tfor (uint256 i = 0; i < animals.length; i++) {\n\t\t\tif (keccak256(abi.encodePacked(animals[i].race)) == keccak256(abi.encodePacked(_race))) {\n\t\t\t\tif (animals[i].size < _size) {\n\t\t\t\t\tif (animals[i].age < _age) {\n\t\t\t\t\t\tif (animals[i].isAdopted == false) {\n\t\t\t\t\t\t\tadoptAnimal(i);\n\t\t\t\t\t\t\treturn;\n\t\t\t\t\t\t}\n\t\t\t\t\t}\n\t\t\t\t}\n\t\t\t}\n\t\t}\n\t}\n}\n",
  "sourcePath": "/Users/pom/workspace/DevEthereum/spa/contracts/Spa.sol",
  "compiler": {
    "name": "solc",
    "version": "0.8.17+commit.8df45f5f.Emscripten.clang"
  },
  "schemaVersion": "3.4.11",
  "updatedAt": "2023-02-24T16:04:25.307Z",
  "networkType": "ethereum",
  "devdoc": {
    "kind": "dev",
    "methods": {},
    "title": "SpaContract fonctionnalits ok event ok visibilit ok require ok optimisation ok test",
    "version": 1
  },
  "userdoc": {
    "kind": "user",
    "methods": {},
    "version": 1
  }
}