{
  "contractName": "Storage",
  "abi": [
    {
      "anonymous": false,
      "inputs": [
        {
          "indexed": false,
          "internalType": "enum Storage.StatusValue",
          "name": "_status",
          "type": "uint8"
        }
      ],
      "name": "Stored_Event",
      "type": "event"
    },
    {
      "inputs": [],
      "name": "status",
      "outputs": [
        {
          "internalType": "enum Storage.StatusValue",
          "name": "",
          "type": "uint8"
        }
      ],
      "stateMutability": "view",
      "type": "function",
      "constant": true
    },
    {
      "inputs": [
        {
          "internalType": "enum Storage.StatusValue",
          "name": "_status",
          "type": "uint8"
        }
      ],
      "name": "store",
      "outputs": [],
      "stateMutability": "nonpayable",
      "type": "function"
    },
    {
      "inputs": [],
      "name": "retrieve",
      "outputs": [
        {
          "internalType": "enum Storage.StatusValue",
          "name": "",
          "type": "uint8"
        }
      ],
      "stateMutability": "view",
      "type": "function",
      "constant": true
    }
  ],
  "bytecode": "0x608060405234801561001057600080fd5b50610247806100206000396000f3fe608060405234801561001057600080fd5b50600436106100415760003560e01c8063200d2ed2146100465780632e64cec1146100645780633bc862c714610082575b600080fd5b61004e61009e565b60405161005b919061019f565b60405180910390f35b61006c6100af565b604051610079919061019f565b60405180910390f35b61009c600480360381019061009791906101e4565b6100c5565b005b60008054906101000a900460ff1681565b60008060009054906101000a900460ff16905090565b806000806101000a81548160ff021916908360028111156100e9576100e8610128565b5b02179055507f21380405c5c44b4f8ae10f9444be1ebce652da49458d88e15f16cb63d7b18b248160405161011d919061019f565b60405180910390a150565b7f4e487b7100000000000000000000000000000000000000000000000000000000600052602160045260246000fd5b6003811061016857610167610128565b5b50565b600081905061017982610157565b919050565b60006101898261016b565b9050919050565b6101998161017e565b82525050565b60006020820190506101b46000830184610190565b92915050565b600080fd5b600381106101cc57600080fd5b50565b6000813590506101de816101bf565b92915050565b6000602082840312156101fa576101f96101ba565b5b6000610208848285016101cf565b9150509291505056fea26469706673582212208ea6230542606449c0a8b12eac21c7db007f6f31ec8f4ec55ff06be16924290a64736f6c63430008110033",
  "immutableReferences": {},
  "source": "// SPDX-License-Identifier: GPL-3.0\n\npragma solidity 0.8.17;\n\n/**\n * @title Storage\n * @dev Store & retrieve value in a variable\n * @custom:dev-run-script ./scripts/deploy_with_ethers.ts grgr\n */\ncontract Storage {\n    enum StatusValue {\n        Pending,\n        Active,\n        Inactive\n    }\n\n    // uint256 public number;\n    StatusValue public status;\n\n    event Stored_Event(StatusValue _status);\n\n    /**\n     * @dev Store value in variable\n     * @param _status status to store\n     */\n    function store(StatusValue _status) public {\n        // require(num > 10, \"num must be greater than 10\");\n        status = _status;\n\n        emit Stored_Event(_status);\n    }\n\n    /**\n     * @dev Return value\n     * @return value of 'number'\n     */\n    function retrieve() public view returns (StatusValue) {\n        return status;\n    }\n}\n",
  "sourcePath": "/Users/pom/workspace/DevEthereum/simple-storage-test/contracts/Storage.sol",
  "compiler": {
    "name": "solc",
    "version": "0.8.17+commit.8df45f5f.Emscripten.clang"
  },
  "schemaVersion": "3.4.11",
  "updatedAt": "2023-02-22T17:50:52.884Z",
  "networkType": "ethereum",
  "devdoc": {
    "custom:dev-run-script": "./scripts/deploy_with_ethers.ts grgr",
    "details": "Store & retrieve value in a variable",
    "kind": "dev",
    "methods": {
      "retrieve()": {
        "details": "Return value",
        "returns": {
          "_0": "value of 'number'"
        }
      },
      "store(uint8)": {
        "details": "Store value in variable",
        "params": {
          "_status": "status to store"
        }
      }
    },
    "title": "Storage",
    "version": 1
  },
  "userdoc": {
    "kind": "user",
    "methods": {},
    "version": 1
  }
}